:020000040800F2
:100000009044012065020008991C00086D06000854
:10001000951C0008C9050008351E000800000000F6
:10002000000000000000000000000000A11C00080B
:1000300005060008000000009D1C0008351D000892
:100040007F0200087F0200087F0200087F0200088C
:100050007F0200087F0200087F0200087F0200087C
:100060007F0200087F0200087F0200087F0200086C
:100070007F020008CD0500087F0200087F0200080B
:100080007F0200087F0200087F0200087F0200084C
:100090007F0200087F0200087F0200087F0200083C
:1000A0007F020008051E00087F0200087F0200088A
:1000B0007F0200087F0200087F0200087F0200081C
:1000C0007F0200087F0200087F0200087F0200080C
:1000D0007F0200087F0200087F0200087F020008FC
:1000E0007F0200087F0200087F0200087F020008EC
:1000F0007F0200087F0200087F0200087F020008DC
:100100007F0200087F0200087F0200087F020008CB
:100110007F0200087F0200087F0200087F020008BB
:100120007F0200087F0200087F0200087F020008AB
:100130007F0200087F0200087F0200087F0200089B
:1001400000000000000000000000000000000000AF
:100150007F0200087F0200087F0200087F0200087B
:100160007F0200087F0200087F0200087F0200086B
:100170007F0200087F0200087F0200087F0200085B
:100180007F02000800F002F800F05CF80AA090E896
:10019000000C82448344AAF10107DA4501D100F042
:1001A00051F8AFF2090EBAE80F0013F0010F18BFB3
:1001B000FB1A43F0010318475869040078690400EA
:1001C0000A444FF0000C10F8013B13F0070408BF7D
:1001D00010F8014B1D1108BF10F8015B641E05D01B
:1001E00010F8016B641E01F8016BF9D113F0080FD0
:1001F0001EBF10F8014BAD1C0C1B09D16D1E58BF62
:1002000001F801CBFAD505E014F8016B01F8016B98
:100210006D1EF9D59142D6D370470000002300240B
:1002200000250026103A28BF78C1FBD8520728BF06
:1002300030C148BF0B6070471FB52DF0A4F81FBD3B
:1002400010B510BD00F085F91146FFF7F5FF25F058
:10025000A7FC00F0A3F903B4FFF7F2FF03BC00F022
:10026000ABF900000948804709480047FEE7FEE770
:10027000FEE7FEE7FEE7FEE7FEE7FEE7FEE7FEE756
:1002800004480549054A064B70470000391D00081F
:1002900085010008903E01209044012090400120FB
:1002A0009040012053EA020C00F069802DE9F04BE8
:1002B0004FF00006002B1FBFB3FA83F503FA05F4D5
:1002C00024FA05F65E4012BF1643B2FA82F502FA2E
:1002D00005F4C5F120051EBF22FA05FC44EA0C0412
:1002E000203556EA044C4FEA144418BF641C4FF002
:1002F00000084FF00009904271EB030C39D300293C
:1003000019BFB1FA81F701FA07F6B0FA80F700FADF
:1003100007F6C7F120071EBF20FA07FC46EA0C06C5
:100320002037B6FBF4FCA7EB0507103F07F01F0BC7
:10033000CBF120062CFA06F60CFA0BFB44BFB346B1
:100340000026202FA4BF5E464FF0000B5BEA060C90
:1003500008BF4FF0010B19EB0B0948EB0608ABFB8C
:10036000027C06FB02CC0BFB03CCC01B71EB0C0127
:10037000C1E70B46024641464846BDE8F08B13B53F
:10038000084318BF4FF0FF300146AFF30080BDE8CF
:100390001C40704740EA0103024630B59B0710D16C
:1003A0004FF0013400E008C208C91D1B9D4315EA47
:1003B000C41FF8D013F0FF0102F8011B0DD01B0A77
:1003C000F8E711F8013B002B02F8013B05D011F8CA
:1003D000013B002B02F8013BF3D130BD10B5431CAB
:1003E00002E010F8011B71B18107FAD14FF0013220
:1003F00002C88C1A8C4314EAC211F9D0C01A0A063A
:1004000003D0C01E10BDC01A10BD0A0401D0801E4A
:1004100010BD0902FCD0401E10BD02F0FF0343EAEC
:10042000032242EA024200F00AB802F0FF0343EA64
:10043000032242EA024200F024B84FF000020429ED
:10044000C0F0128010F0030C00F01B80CCF1040C03
:10045000BCF1020F18BF00F8012BA8BF20F8022B37
:10046000A1EB0C0100F00DB85FEAC17C24BF00F8DD
:10047000012B00F8012B48BF00F8012B70474FF00B
:10048000000200B5134694469646203922BFA0E8E4
:100490000C50A0E80C50B1F12001BFF4F7AF0907F0
:1004A00028BFA0E80C5048BF0CC05DF804EB8900E1
:1004B00028BF40F8042B08BF704748BF20F8022B24
:1004C00011F0804F18BF00F8012B704700000000AA
:1004D00030B44FF0013C50F8042B51F8043BCCFAF7
:1004E00052F4D51A20D1FCB950F8042B51F8043B32
:1004F000CCFA52F4D51A17D1B4B950F8042B51F8EC
:10050000043BCCFA52F4D51A0ED16CB950F8042B36
:1005100051F8043BCCFA52F4D51A05D1002CDAD0AC
:1005200030BC4FF00000704729BAB1FA81F111F0E8
:100530001801D1F120008440F2D1CA40CB4012F022
:10054000FF0213F0FF0330BCD01A704770477047AA
:100550007047754600F02CF8AE46050069465346D4
:1005600020F00700854618B020B5FFF789FEBDE8EA
:1005700020404FF000064FF000074FF000084FF00A
:10058000000BAC46ACE8C009ACE8C009ACE8C00957
:10059000ACE8C00921F007018D46704710B504464C
:1005A000AFF300802046BDE81040FFF754BE0000C6
:1005B000004870472008002001491820ABBEFEE724
:1005C0002600020070470000FEE7000080B54FF4EF
:1005D000007004F0CFFF002808BF80BD4FF400700A
:1005E00004F0BCFF40F60040C4F20100042109F011
:1005F0004DFA40F68020C2F20000BDE880400FF0C6
:100600001BB8000070470000F0B581B00E460746E9
:100610004FF4A0100121154604F076FE3024C4F2F8
:100620000204204604F0FAFF40F6DC21C2F2000189
:10063000102008814FF48070C860088220464D81E8
:10064000C1E9006704F0A4FF20460221012204F062
:10065000DDFF0D200021002225F066FC204601214F
:1006600001B0BDE8F04004F073BF0000FEE70000F9
:100670002DE9F04381B040F60044C4F201048946FC
:100680000746204602219846164609F0FDF9204605
:10069000042109F0F9F904F5105528462A2127F01C
:1006A000ABFE00BF2846802127F0B2FE0028F9D11A
:1006B0002046042109F0EAF92046022109F0E6F972
:1006C00007F1140080B201F0B3FA06F1140080B211
:1006D00001F0AEFA2046022109F0D6F920460421A5
:1006E00009F0D2F928462B2127F086FE28468021E2
:1006F00027F08EFE0028F9D12046042109F0C6F922
:100700002046022109F0C2F9484601F091FA40461C
:1007100001F08EFA2046022109F0B6F920460421A4
:1007200009F0B2F928462C2127F066FE28468021E0
:1007300027F06EFE0028F9D12046042109F0A6F921
:100740002046022101B0BDE8F04309F09FB9000046
:1007500070B582B00225C0F2180540F60044284664
:100760000121C4F20104012604F0CEFD681C012120
:1007700004F0CAFDA81C012104F0C6FD6D46284600
:1007800009F086F9009641F60006C0F210162046E0
:100790002946019609F086F9284609F079F90220E0
:1007A000CDE900062046294609F07CF9284609F0E3
:1007B0006FF90420CDE900062046294609F072F9B8
:1007C000284609F065F94FF48060CDE9000620461F
:1007D000294609F067F92046012109F057F920461A
:1007E000022109F053F92046042109F04FF920466F
:1007F0004FF4806109F048F92046012109F046F9DB
:100800000A2004F04BFE2046012109F03DF90A20A0
:1008100004F044FE2046012109F038F9782004F064
:100820003DFE20464FF4806109F030F92046022158
:1008300009F02AF92046042109F026F904F510559B
:100840002846FD2127F0D8FD2846802127F0E0FD2D
:100850000028F9D12046042109F018F92046022188
:1008600009F014F92046042109F00EF92846062162
:1008700027F0C2FD2846802127F0CAFD0028F9D1C3
:100880002046042109F002F92046042109F0FCF871
:100890002846082127F0B0FD2846802127F0B8FD22
:1008A0000028F9D12046042109F0F0F82046022161
:1008B00009F0EAF82046042109F0E6F8284661210B
:1008C00027F09AFD2846802127F0A2FD0028F9D1C3
:1008D0002046042109F0DAF82046022109F0D6F872
:1008E0002046042109F0D0F82846072127F084FD8E
:1008F0002846802127F08CFD0028F9D120460421CC
:1009000009F0C4F82046042109F0BEF82846042165
:1009100027F072FD2846802127F07AFD0028F9D1C2
:100920002046042109F0B2F82046022109F0ACF873
:100930002046042109F0A8F82846622127F05CFD32
:100940002846802127F064FD0028F9D120460421A3
:1009500009F09CF82046022109F098F8204604216D
:1009600009F092F82846002127F046FD284680210C
:1009700027F04EFD0028F9D12046042109F086F821
:100980002046042109F080F82846442127F034FD50
:100990002846802127F03CFD0028F9D1204604217B
:1009A00009F074F82046042109F06EF82846452124
:1009B00027F022FD2846802127F02AFD0028F9D1C2
:1009C0002046042109F062F82046022109F05CF873
:1009D0002046042109F058F82846632127F00CFD31
:1009E0002846802127F014FD0028F9D12046042153
:1009F00009F04CF82046022109F048F8204604216D
:100A000009F042F82846412127F0F6FC28468021CB
:100A100027F0FEFC0028F9D12046042109F036F821
:100A20002046042109F030F82846072127F0E4FC8D
:100A30002846802127F0ECFC0028F9D1204604212B
:100A400009F024F82046042109F01EF82846122156
:100A500027F0D2FC2846802127F0DAFC0028F9D1C3
:100A60002046042109F012F82046042109F00CF870
:100A70002846122127F0C0FC2846802127F0C8FC18
:100A80000028F9D12046042109F000F8204602216F
:100A900008F0FAFF2046042108F0F6FF28466421FA
:100AA00027F0AAFC2846802127F0B2FC0028F9D1C3
:100AB0002046042108F0EAFF2046022108F0E6FF64
:100AC0002046042108F0E0FF2846372127F094FC57
:100AD0002846802127F09CFC0028F9D120460421DB
:100AE00008F0D4FF2046022108F0CEFF2046042162
:100AF00008F0CAFF2846652127F07EFC28468021A1
:100B000027F086FC0028F9D12046042108F0BEFF1A
:100B10002046022108F0BAFF2046042108F0B4FF65
:100B20002846092127F068FC2846802127F070FC20
:100B30000028F9D12046042108F0A8FF204604210E
:100B400008F0A2FF2846102127F056FC28468021F5
:100B500027F05EFC0028F9D12046042108F096FF1A
:100B60002046042108F090FF2846212127F044FC6C
:100B70002846802127F04CFC0028F9D1204604218A
:100B800008F084FF2046022108F07EFF2046042161
:100B900008F07AFF2846662127F02EFC284680219F
:100BA00027F036FC0028F9D12046042108F06EFF1A
:100BB0002046022108F06AFF2046042108F064FF65
:100BC0002846092127F018FC2846802127F020FC20
:100BD0000028F9D12046042108F058FF20460421BE
:100BE00008F052FF2846102127F006FC28468021F5
:100BF00027F00EFC0028F9D12046042108F046FF1A
:100C00002046042108F040FF2846212127F0F4FB6C
:100C10002846802127F0FCFB0028F9D1204604213A
:100C200008F034FF2046022108F02EFF2046042160
:100C300008F02AFF2846672127F0DEFB284680219E
:100C400027F0E6FB0028F9D12046042108F01EFF1A
:100C50002046022108F01AFF2046042108F014FF64
:100C60002846202127F0C8FB2846802127F0D0FB0A
:100C70000028F9D12046042108F008FF204604216D
:100C800008F002FF2846402127F0B6FB28468021C5
:100C900027F0BEFB0028F9D12046042108F0F6FE1B
:100CA0002046022108F0F0FE2046042108F0ECFE68
:100CB0002846682127F0A0FB2846802127F0A8FBC2
:100CC0000028F9D12046042108F0E0FE2046022148
:100CD00008F0DCFE2046042108F0D6FE28469021CC
:100CE00027F08AFB2846802127F092FB0028F9D1C3
:100CF0002046042108F0CAFE2046042108F0C4FE64
:100D000028464C2127F078FB2846802127F080FBDD
:100D10000028F9D12046042108F0B8FE204604211D
:100D200008F0B2FE28467C2127F066FB2846802189
:100D300027F06EFB0028F9D12046042108F0A6FE1A
:100D40002046042108F0A0FE2846662127F054FB27
:100D50002846802127F05CFB0028F9D12046042199
:100D600008F094FE2046022108F08EFE2046042161
:100D700008F08AFE2846B12127F03EFB2846802154
:100D800027F046FB0028F9D12046042108F07EFE1A
:100D90002046022108F07AFE2046042108F074FE65
:100DA00028460F2127F028FB2846802127F030FB1A
:100DB0000028F9D12046042108F068FE20460421CD
:100DC00008F062FE2846022127F016FB2846802103
:100DD00027F01EFB0028F9D12046042108F056FE1A
:100DE0002046042108F050FE2846012127F004FB8C
:100DF0002846802127F00CFB0028F9D12046042149
:100E000008F044FE2046022108F03EFE2046042160
:100E100008F03AFE2846B42127F0EEFA2846802151
:100E200027F0F6FA0028F9D12046042108F02EFE1A
:100E30002046022108F02AFE2046042108F024FE64
:100E40002846012127F0D8FA2846802127F0E0FA29
:100E50000028F9D12046042108F018FE204602217E
:100E600008F012FE2046042108F00EFE2846B521A7
:100E700027F0C2FA2846802127F0CAFA0028F9D1C3
:100E80002046042108F002FE2046022108F0FEFD63
:100E90002046042108F0F8FD2846022127F0ACFA8C
:100EA0002846802127F0B4FA0028F9D120460421F1
:100EB00008F0ECFD2046042108F0E6FD284602215A
:100EC00027F09AFA2846802127F0A2FA0028F9D1C3
:100ED0002046042108F0DAFD2046042108F0D4FD64
:100EE00028460A2127F088FA2846802127F090FA20
:100EF0000028F9D12046042108F0C8FD204604212D
:100F000008F0C2FD2846142127F076FA28468021F1
:100F100027F07EFA0028F9D12046042108F0B6FD1A
:100F20002046022108F0B0FD2046042108F0ACFD67
:100F30002846B62127F060FA2846802127F068FA73
:100F40000028F9D12046042108F0A0FD2046022106
:100F500008F09CFD2046042108F096FD2846042157
:100F600027F04AFA2846802127F052FA0028F9D1C2
:100F70002046042108F08AFD2046042108F084FD63
:100F80002846012127F038FA2846802127F040FA28
:100F90000028F9D12046042108F078FD20460421DC
:100FA00008F072FD28469F2127F026FA2846802166
:100FB00027F02EFA0028F9D12046042108F066FD1A
:100FC0002046042108F060FD2846002127F014FA8D
:100FD0002846802127F01CFA0028F9D12046042158
:100FE00008F054FD2046042108F04EFD2846022159
:100FF00027F002FA2846802127F00AFA0028F9D1C2
:101000002046042108F042FD2046022108F03CFD64
:101010002046042108F038FD2846DF2127F0ECF9AE
:101020002846802127F0F4F90028F9D12046042130
:1010300008F02CFD2046022108F028FD204604215E
:1010400008F022FD2846112127F0D6F928468021F4
:1010500027F0DEF90028F9D12046042108F016FD1A
:101060002046022108F010FD2046042108F00CFD66
:101070002846E22127F0C0F92846802127F0C8F948
:101080000028F9D12046042108F000FD2046022165
:1010900008F0FCFC2046042108F0F6FC2846132149
:1010A00027F0AAF92846802127F0B2F90028F9D1C3
:1010B0002046042108F0EAFC2046042108F0E4FC64
:1010C0002846002127F098F92846802127F0A0F92A
:1010D0000028F9D12046042108F0D8FC204604213C
:1010E00008F0D2FC2846002127F086F92846802106
:1010F00027F08EF90028F9D12046042108F0C6FC1B
:101100002046042108F0C0FC2846302127F074F95D
:101110002846802127F07CF90028F9D120460421B7
:1011200008F0B4FC2046042108F0AEFC2846332128
:1011300027F062F92846802127F06AF90028F9D1C2
:101140002046042108F0A2FC2046042108F09CFC63
:1011500028463F2127F050F92846802127F058F9EA
:101160000028F9D12046042108F090FC20460221F5
:1011700008F08AFC2046042108F086FC2846E52178
:1011800027F03AF92846802127F042F90028F9D1C2
:101190002046042108F07AFC2046022108F076FC63
:1011A0002046042108F070FC28463F2127F024F94E
:1011B0002846802127F02CF90028F9D12046042167
:1011C00008F064FC2046042108F05EFC2846332128
:1011D00027F012F92846802127F01AF90028F9D1C2
:1011E0002046042108F052FC2046042108F04CFC63
:1011F0002846302127F000F92846802127F008F9F9
:101200000028F9D12046042108F040FC20460421A2
:1012100008F03AFC2846002127F0EEF82846802105
:1012200027F0F6F80028F9D12046042108F02EFC1A
:101230002046042108F028FC2846002127F0DCF88D
:101240002846802127F0E4F80028F9D1204604211F
:1012500008F01CFC2046042108F016FC2846132147
:1012600027F0CAF82846802127F0D2F80028F9D1C3
:101270002046042108F00AFC2046022108F004FC64
:101280002046042108F000FC2846E12127F0B4F8AC
:101290002846802127F0BCF80028F9D120460421F7
:1012A00008F0F4FB2046022108F0F0FB2046042160
:1012B00008F0EAFB2846002127F09EF82846802106
:1012C00027F0A6F80028F9D12046042108F0DEFB1B
:1012D0002046042108F0D8FB2846572127F08CF837
:1012E0002846802127F094F80028F9D120460421CF
:1012F00008F0CCFB2046022108F0C6FB2046042162
:1013000008F0C2FB2846E42127F076F82846802121
:1013100027F07EF80028F9D12046042108F0B6FB1A
:101320002046022108F0B2FB2046042108F0ACFB65
:101330002846582127F060F82846802127F068F8D1
:101340000028F9D12046042108F0A0FB2046042102
:1013500008F09AFB2846002127F04EF82846802105
:1013600027F056F80028F9D12046042108F08EFB1A
:101370002046022108F088FB2046042108F084FB67
:101380002846E02127F038F82846802127F040F849
:101390000028F9D12046042108F078FB20460221DC
:1013A00008F074FB2046042108F06EFB284601215A
:1013B00027F022F82846802127F02AF80028F9D1C2
:1013C0002046042108F062FB2046042108F05CFB63
:1013D0002846032127F010F82846802127F018F826
:1013E0000028F9D12046042108F050FB20460421B2
:1013F00008F04AFB28460D2126F0FEFF28468021F2
:1014000027F006F80028F9D12046042108F03EFB19
:101410002046042108F038FB28460E2126F0ECFF78
:101420002846802126F0F4FF0028F9D12046042127
:1014300008F02CFB2046042108F026FB28460E214C
:1014400026F0DAFF2846802126F0E2FF0028F9D1B5
:101450002046042108F01AFB2046042108F014FB62
:1014600028460C2126F0C8FF2846802126F0D0FF10
:101470000028F9D12046042108F008FB2046042169
:1014800008F002FB2846152126F0B6FF28468021E9
:1014900026F0BEFF0028F9D12046042108F0F6FA14
:1014A0002046042108F0F0FA2846192126F0A4FF6E
:1014B0002846802126F0ACFF0028F9D120460421DF
:1014C00008F0E4FA2046022108F0DEFA2046042162
:1014D00008F0DAFA2846E32126F08EFF284680211C
:1014E00026F096FF0028F9D12046042108F0CEFA14
:1014F0002046022108F0CAFA2046042108F0C4FA66
:1015000028461A2126F078FF2846802126F080FF01
:101510000028F9D12046042108F0B8FA2046042119
:1015200008F0B2FA2846162126F066FF28468021E8
:1015300026F06EFF0028F9D12046042108F0A6FA13
:101540002046042108F0A0FA28460C2126F054FF7A
:101550002846802126F05CFF0028F9D1204604218E
:1015600008F094FA2046042108F08EFA28460F214C
:1015700026F042FF2846802126F04AFF0028F9D1B4
:101580002046042108F082FA2046042108F07CFA63
:1015900028460E2126F030FF2846802126F038FF0D
:1015A0000028F9D12046042108F070FA20460421D1
:1015B00008F06AFA28460D2126F01EFF28468021F1
:1015C00026F026FF0028F9D12046042108F05EFA13
:1015D0002046042108F058FA2846022126F00CFF84
:1015E0002846802126F014FF0028F9D12046042146
:1015F00008F04CFA2046042108F046FA284601215A
:1016000026F0FAFE2846802126F002FF0028F9D1B4
:101610002046042108F03AFA2046022108F034FA64
:101620002046042108F030FA2846E62126F0E4FEA0
:101630002846802126F0ECFE0028F9D1204604211E
:1016400008F024FA2046022108F020FA204604215E
:1016500008F01AFA2846002126F0CEFE28468021FE
:1016600026F0D6FE0028F9D12046042108F00EFA13
:101670002046042108F008FA2846FF2126F0BCFE87
:101680002846802126F0C4FE0028F9D120460421F6
:1016900008F0FCF92046022108F0F6F92046042162
:1016A00008F0F2F92846E72126F0A6FE2846802118
:1016B00026F0AEFE0028F9D12046042108F0E6F914
:1016C0002046022108F0E2F92046042108F0DCF966
:1016D0002846012126F090FE2846802126F098FE1B
:1016E0000028F9D12046042108F0D0F92046042131
:1016F00008F0CAF92846042126F07EFE28468021FB
:1017000026F086FE0028F9D12046042108F0BEF913
:101710002046042108F0B8F92846032126F06CFE83
:101720002846802126F074FE0028F9D120460421A5
:1017300008F0ACF92046042108F0A6F92846032158
:1017400026F05AFE2846802126F062FE0028F9D1B4
:101750002046042108F09AF92046042108F094F963
:101760002846002126F048FE2846802126F050FE1B
:101770000028F9D12046042108F088F920460421E8
:1017800008F082F92846122126F036FE28468021EC
:1017900026F03EFE0028F9D12046042108F076F913
:1017A0002046022108F070F92046042108F06CF967
:1017B0002846E82126F020FE2846802126F028FE33
:1017C0000028F9D12046042108F060F920460221C2
:1017D00008F05CF92046042108F056F9284600215B
:1017E00026F00AFE2846802126F012FE0028F9D1B4
:1017F0002046042108F04AF92046042108F044F963
:101800002846702126F0F8FD2846802126F000FEAB
:101810000028F9D12046042108F038F92046042197
:1018200008F032F92846002126F0E6FD28468021FE
:1018300026F0EEFD0028F9D12046042108F026F913
:101840002046022108F020F92046042108F01CF966
:101850002846EC2126F0D0FD2846802126F0D8FD30
:101860000028F9D12046042108F010F92046022171
:1018700008F00CF92046042108F006F92846522108
:1018800026F0BAFD2846802126F0C2FD0028F9D1B5
:101890002046042108F0FAF82046022108F0F4F866
:1018A0002046042108F0F0F82846F12126F0A4FD96
:1018B0002846802126F0ACFD0028F9D120460421DD
:1018C00008F0E4F82046022108F0E0F82046042160
:1018D00008F0DAF82846012126F08EFD28468021FE
:1018E00026F096FD0028F9D12046042108F0CEF814
:1018F0002046042108F0C8F82846012126F07CFD86
:101900002846802126F084FD0028F9D120460421B4
:1019100008F0BCF82046042108F0B6F82846022159
:1019200026F06AFD2846802126F072FD0028F9D1B4
:101930002046042108F0AAF82046022108F0A4F865
:101940002046042108F0A0F82846F62126F054FD90
:101950002846802126F05CFD0028F9D1204604218C
:1019600008F094F82046022108F090F8204604215F
:1019700008F08AF82846092126F03EFD28468021F5
:1019800026F046FD0028F9D12046042108F07EF813
:101990002046042108F078F82846102126F02CFD76
:1019A0002846802126F034FD0028F9D12046042164
:1019B00008F06CF82046042108F066F8284600215B
:1019C00026F01AFD2846802126F022FD0028F9D1B4
:1019D0002046042108F05AF82046042108F054F863
:1019E0002846002126F008FD2846802126F010FD1B
:1019F0000028F9D12046042108F048F820460221A9
:101A000008F042F82046042108F03EF82846FD215F
:101A100026F0F2FC2846802126F0FAFC0028F9D1B5
:101A20002046042108F032F82046022108F02EF862
:101A30002046042108F028F82846FA2126F0DCFC8C
:101A40002846802126F0E4FC0028F9D12046042114
:101A500008F01CF82046042108F016F82846FC215E
:101A600026F0CAFC2846802126F0D2FC0028F9D1B5
:101A70002046042108F00AF82046022108F004F864
:101A80002046042108F000F828463A2126F0B4FC4C
:101A90002846802126F0BCFC0028F9D120460421EC
:101AA00007F0F4FF2046022107F0F0FF2046042152
:101AB00007F0EAFF2846052126F09EFC28468021F3
:101AC00026F0A6FC0028F9D12046042107F0DEFF0D
:101AD0002046022107F0D8FF2046042107F0D4FF5A
:101AE0002846352126F088FC2846802126F090FCE7
:101AF0000028F9D12046042107F0C8FF2046022122
:101B000007F0C4FF2046042107F0BEFF284600214D
:101B100026F072FC2846802126F07AFC0028F9D1B4
:101B20002046042107F0B2FF2046022107F0ACFF57
:101B30002046042107F0A8FF2846362126F05CFC49
:101B40002846802126F064FC0028F9D12046042193
:101B500007F09CFF2046022107F098FF2046042151
:101B600007F092FF2846782126F046FC284680217F
:101B700026F04EFC0028F9D12046042107F086FF0C
:101B80002046022107F080FF2046042107F07CFF59
:101B90002846212126F030FC2846802126F038FCFA
:101BA0000028F9D12046042107F070FF20460221C9
:101BB00007F06CFF2046022107F066FF2046042153
:101BC00007F062FF2846112126F016FC28468021E6
:101BD00026F01EFC0028F9D12046042107F056FF0C
:101BE0002046022107F052FFC82003F057FC204690
:101BF000022107F049FF2046042107F045FF28464F
:101C0000292126F0F9FB00BF2846802126F000FCA0
:101C10000028F9D12046042107F038FF2046022190
:101C200007F034FF0A2003F039FC02B070BD000059
:101C3000F0B581B040F60044C4F201040646070A3C
:101C40002046042107F020FF04F5105528463946A8
:101C500026F0D2FB2846802126F0DAFB0028F9D1B5
:101C60002046042107F012FF2046042107F00CFF54
:101C7000F1B2284626F0C0FB2846802126F0C8FB9A
:101C80000028F9D12046042101B0BDE8F04007F05A
:101C9000FDBE0000FEE70000704700007047000036
:101CA00070470000F0B585B00224C0F21804204649
:101CB000012103F029FB04F10A00012103F024FBB8
:101CC00003AD284607F0E4FE43F20004C4F2010429
:101CD000802040F20047A4F520560390C0F2081778
:101CE00030462946049707F0DDFE284607F0D0FE6F
:101CF0002020CDE903073046294607F0D3FE01AD89
:101D0000284626F067FB4FF48070019040F20010E7
:101D1000C0F2011002902046294626F07FFB2046A3
:101D2000012126F06BFB2046012126F05BFB05B06C
:101D3000F0BD0000704700004EF6885CCEF2000C4B
:101D4000DCF8002041F2000142F47002C4F202010A
:101D5000CCF800200A6842F001020A600A68920783
:101D6000FCD54A6822F003024A6000BF4A6812F0BC
:101D70000C0FFBD100224A600B684FF6FF70CFF6C4
:101D8000F260184008604FF41F000A6388604FF04B
:101D900000604CF8800C704743F64861C2F20101C4
:101DA0000870704710B586B000200590CDE903009B
:101DB000CDE9010001A803F0FFF90B20C0F21800E3
:101DC000012103F0A1FA42F60044C4F201042046C6
:101DD000092145F6BF522AF04FFE204600212AF085
:101DE00053FE2046012101222AF068FE192000211D
:101DF000002224F099F8204601212AF04FFE06B077
:101E000010BD000010B542F60044C4F201042046A3
:101E100001212AF04DFE002808BF10BD20460121F7
:101E20002AF042FE0120FFF7B7FF0120BDE8104075
:101E300023F010B8FEE7000070B540F6A404C2F22B
:101E400000042046442100F0DFFD43F61D60C0F68B
:101E500000001E21002223F06DF840F6B006C2F209
:101E6000000640F640253060C2F2000501202870CF
:101E7000204600F0A3FD0146306811B123F07AF945
:101E800001E023F067F90020287070BD70B50346AB
:101E9000B1F90000B2F90040B1F902C0B2F9025044
:101EA000B1F904E0B2F90460A042B1F90610B2F948
:101EB0000620C8BF0446AC451C80C8BF6546B64571
:101EC0005D80B8BF764691429E80B8BF0A4600202A
:101ED000B4424FF00001D8BF01219542D8BF012084
:101EE0000840DA8070BD00002DE9F04381B00C4657
:101EF000B0F90070B1F900108F423DDBB0F902601B
:101F0000B4F902108E4237DBB0F90490B4F9041032
:101F1000894531DCB0F90680B4F9060080452BDC38
:101F200015466AB3694620462A46ADF80070ADF8FA
:101F3000026000F097F8F8B1694620462A46ADF8ED
:101F40000090ADF8026000F08DF8A8B16946204617
:101F50002A46ADF80070ADF8028000F083F858B161
:101F6000694620462A46ADF80090ADF8028000F0A0
:101F700079F801B0BDE8F083002001B0BDE8F0833E
:101F8000012001B0BDE8F083B0F90020B1F90430C0
:101F90009A4213DCB0F90420B1F900309A420DDB0B
:101FA000B0F90220B1F906309A4207DCB0F9060018
:101FB000B1F902108842A4BF012070470020704789
:101FC0002DE9F04381B00C46B0F90460B1F900107E
:101FD0008E4211DBB0F90670B4F902108F420BDBB0
:101FE000B0F90080B4F90410884505DCB0F902901E
:101FF000B4F90600814503DD012001B0BDE8F0839E
:102000001546EAB1694620462A46ADF80080ADF88B
:10201000029000F027F898B9694620462A46ADF8A4
:102020000060ADF8029000F01DF848B969462046FE
:102030002A46ADF80080ADF8027000F013F818B130
:10204000002001B0BDE8F083694620462A46ADF87D
:102050000060ADF8027000F005F880F0010001B0FA
:10206000BDE8F0832DE9F041B1F90030B0F900404E
:10207000A3420DDBB0F904E0734509DCB1F90210AD
:10208000B0F902C0614503DBB0F90600814202DD10
:102090000020BDE8F081012A36DBAEEB04050135F6
:1020A000AEB205EBD6352EB2A0EB0C050135AFB2C2
:1020B00005EBD7352FB24FEA66087D10B8EB670FF6
:1020C000B8BF75109542A8BF15462A1916B205EB80
:1020D0000C02B34212B2D8BF914218DD401BB3428A
:1020E00000B22CDC81422ADB721912B2121B02EB05
:1020F000D272571004EB6206294400EB62009B1B6E
:10210000081A07FB07F110E00120BDE8F081701903
:1021100000B2001B00EBD070421004EB60070CEB28
:102120006000DB1B081A02FB02F113FB03F210FB39
:10213000002200208A4298BF0120BDE8F081AEEB6A
:10214000050424B2A342A8BF814220DAA3424FF083
:1021500001001ADB9142C8BFBDE8F081601B02B2EA
:10216000AEEB020202EBD27200EB62005710181ABB
:102170000CEB6202891A10FB00F007FB07F211FB5F
:1021800001010020914298BF0120BDE8F081621B4F
:1021900017B2AEEB070707EBD77702EB67027E10AB
:1021A0009A1A294400EB6700081A06FB06F112FB95
:1021B00002F2BCE770B5B1F90030B2F90040B1F9F4
:1021C00002C0B2F90250B1F904E0B2F90460A342CE
:1021D000B1F90610B2F90620B8BF1C46AC45048020
:1021E000B8BF6546B6454580C8BF764686809142F1
:1021F000C8BF0A46C28070BD80B5002808BF0DF078
:1022000021FA002814BF4068002080BD2DE9F04F5E
:102210008BB0054622F00EFE40F6D42A0390002033
:10222000C2F2000A089035B1E868CAF800002846F2
:1022300022F090FF03E00DF005FACAF80000DAF88A
:10224000000000691EF0F0FFDAF800004069002885
:1022500018BF1EF0E9FFDAF80000C0691EF0E4FFC5
:10226000DAF80000006A1EF0DFFFDAF8000001690A
:10227000002979D0B0F8501100295DD000250DF16A
:1022800024084FF0010906E0DAF800000135B0F843
:1022900050118D4250D2284490F830010028F3D1DB
:1022A000DAF80000B0F850110029EDD0002406E063
:1022B000DAF800000134B0F850118C42E4D2011970
:1022C00091F830110029F3D1AC42F1D000F1300186
:1022D00001EBC50001EBC401FFF756FE0028E7D073
:1022E000DAF80000303000EBC50100EBC4024046D4
:1022F000FFF760FF404609F0B5FEDAF80010064629
:1023000001EBC500303009F0ADFEDAF800100746E9
:1023100001EBC400303009F0A5FE38448642C7D234
:10232000DAF80000DDE9092300EBC50120440A6367
:102330004B6380F83091BBE7DAF8000043F6EC5BC2
:10234000B0F85011C2F2010B00220029CBF8002096
:1023500000F04F8101290DDB421892F82F214C1E0D
:10236000002A2146F6D106E00021A0F850110BB05A
:10237000BDE8F08F00240068416B002918BF884732
:10238000DAF800000168C9688A6922F001028A61EE
:102390000168C9688A6922F002028A61B0F85011A6
:1023A00090F82820002942F0040180F8281000F05D
:1023B0001A81002702941CE0816962F34101816166
:1023C0003046C6F8089024F021F9DAF8000000EB56
:1023D000C700303009F046FEDBF800100844CBF8A7
:1023E0000000DAF800000137B0F850118F4280F099
:1023F000FA80C11991F830110029F2D1A74205D114
:102400000168C9688A6942F001028A61016800EBCB
:10241000C708C96808F130098A6922F002028A6196
:102420000168CA68CE6B92683260097C890720D047
:102430000DF022F9DAF80010A0F1010808460DF0BD
:1024400073F9013805B20FFA88F309A800210022B8
:102450000095054609F040FEDAF800007560016855
:10246000D1E9030182698907A6D542F00201A94694
:10247000A5E738F832BFCDF81C90414631F8022F5D
:102480004546CDE90521B9F8001035F9044F04910E
:102490000DF04AF9844202DAB5F8009005E0DAF866
:1024A00000000DF041F9A0F10109DDE90410A4EBF1
:1024B0000B02401ADAF800100130096800B2CB684C
:1024C0000132DB688969B3FBF0F00FFA82FB5845F3
:1024D000B8BF834601B300205C460990ADF82800E0
:1024E000651EDAF80000ADF82A50006809A9826973
:1024F0009047BDF92A00BDF82610411A013109B2F2
:102500008B4502DA2CB2002CEADC21B20129ACBFE7
:1025100000F1010B4FF0000BB8F900000FFA89F53C
:102520000BEB00014A1EAA4280B20CDD4FF00008FE
:1025300030E000BF304624F069F80BFA84F14A1EFF
:10254000AA42204625DC079B0C461B8811B2ADF839
:102550002430069B8D421B88ADF82600ADF828304C
:1025600009ABDAF80000ADF82A207360B3600068A8
:102570001FFA89F1C06882683260B8BFADF82A904E
:10258000BDF82A804145D5D1816941F002018161C0
:10259000D0E72046029C079A1FFA89F10DF1240B1F
:1025A00041451BD01188ADF8241006990988ADF873
:1025B0002600DAF80000ADF82810ADF82A90C6F829
:1025C00004B0C6F808B00068C068816831608169ED
:1025D00041F002018161304624F018F843F6EC5BCB
:1025E000C2F2010BF1E690F8281001F0FB0180F82F
:1025F0002810DAF80000B0F85011E9B130304FF48B
:10260000807118F003FFDAF80000202100F59870BF
:1026100018F0FCFEDAF800000021A0F85011039831
:1026200022F0F4FB0890DAF800000068436A1BB15E
:102630000899DBF80020984718F090FC00F030F87B
:1026400000F004F80BB0BDE8F08F0000B0B540F624
:10265000B4050024C2F200052859002818BF18F05C
:1026600065FD28191C2118F0D1FE1C34702C08BF00
:10267000B0BDF1E740F6F831C2F20001096804E0AC
:102680000A7E42F001020A764969002908BF7047B4
:102690004A688242F4D00A688242F5D1F0E700002D
:1026A0007047000040F6B010C2F20000042100F0B4
:1026B000ABB9000040F6C010C2F20000202100F0CB
:1026C000A3B900002DE9F04F85B00E9E1D46002BEA
:1026D000834608BFB6F5807F6DD0DDF83C800023CF
:1026E000019301A8ADF80810CDF80A30ADF80E201E
:1026F000ADF81010ADF81220294632464346071DAA
:1027000000F1080900F10C0A1EF0E4FD38462946E4
:10271000324643461EF0DEFD4846294632464346D1
:102720001EF0D8FD50462946324643461EF0D2FDE3
:10273000BDF90420BDF90830BDF90C60BDF91040A9
:102740009A421F46BDF90610BDF90A00B8BF1746E8
:10275000A6422546B8BF3546AF42B8BF3D46AF1E7C
:102760009A42ABF80070C8BF1346A642C8BF3446B1
:10277000A342C8BF1C46A21CBDF90E30BDF91260B1
:10278000ABF8042081420246B8BF0A46B34237463E
:10279000B8BF1F46BA42B8BF1746BA1E8142ABF84F
:1027A0000220C8BF0846B342C8BF1E46B042C8BFD9
:1027B0000646B01C06E00020CBF80000481EABF82F
:1027C0000400501EABF8060005B0BDE8F08F000015
:1027D000F0B581B016460C46074622F02BFBA2B29C
:1027E00040F6CC14C2F20004054620463946334672
:1027F00015F0A2FD68B1E0690021A16218B9284670
:1028000022F004FBE061E069002804BF0120E061E0
:1028100007E020462C2118F0F9FD4FF00040A0629F
:102820000024204601B0F0BD10B540F6F814C2F205
:1028300000042046142100F0E7F8204600F0ECF8F0
:10284000B0B11421044618F0E1FD47F67540C0F61A
:10285000010047F6655147F64D7247F63D43C0F615
:102860000101C0F60102C0F601030FC410BD00BF94
:10287000FEE70000F0B585B004460D4610B134B94E
:1028800005B0F0BD0CF0DEFE0446002CF8D020466A
:102890000CF064FF0028F3D094F828004007EFD430
:1028A0000020D5B3029020460CF0E6FE0138ADF8CA
:1028B0000C0020460CF038FF0138ADF80E006846D9
:1028C00002AA2946FFF7E2FA0028D9D02068017C45
:1028D000890726D482690AB169469047B4F8500145
:1028E00090B104F1300500276E4600BF30462946FE
:1028F0000022FFF7F9FA0028C2D1B4F850010137DD
:10290000874205F10805F1D31F2818D8DDE9001228
:1029100004EBC0000163426318E0A4F8500105B065
:10292000F0BD0298039920630120A4F8500160686B
:1029300061630028A4D022F01DFC05B0F0BD00208A
:10294000A4F85001DDE9020120636163B4F850117D
:10295000606801310028A4F8501118BF22F00AFC69
:1029600005B0F0BDF0B581B00028044614BF65681D
:1029700000250DB3002707E0002D656014BF6F50E0
:10298000A76018F0D3FBBDB1D4E9001328460A1D97
:10299000AD588342F0D0A6684358864206D0002B3B
:1029A00018BF9D50002D18BF6B50EAE7002BA360A5
:1029B00014BF9F506760E4E701B0F0BD002814BF6A
:1029C0004068002070470000002814BF41680021C3
:1029D000002904BF002070470068021D002000BFCE
:1029E000895801300029FBD1704700000068084475
:1029F000406870470068085870470000002814BFFE
:102A000080680020704700000331002221F003019C
:102A1000C0E900128260704710B5044600680830B3
:102A200018F078FA002808BF10BD21680022425033
:102A3000626801444A60616800291CBF22688850AE
:102A4000A1686060002908BFA06010BD10B50446F1
:102A50000068083018F05EFA002808BF10BD216831
:102A6000002342185360A2684250A16811B1226845
:102A7000114448606168A060002908BF606010BD13
:102A800028B1416809B9806808B100207047012069
:102A90007047000080B5002808BF80BD42688A42A8
:102AA00013D0D0F800E0826851F80E308A4217D077
:102AB0000EF1040C51F80C00002B18BF43F80C0069
:102AC000002818BF40F80E3080BD026811444968E4
:102AD0000029416007BF002181600020885080BD2F
:102AE0000021002B836018BF0EEB0300416080BD06
:102AF00010B5044606E000BF20680068002808BF43
:102B000010BD206020688268002AF5D021469047D9
:102B1000F2E700008068002814BFC08A002000B2DD
:102B200070470000806800280EBF0020807E80096A
:102B300070470000F0B581B01446A8B16122064686
:102B40000F461BF047FE88B10546006880B130464D
:102B5000394662221BF03EFE01060BD02B68A1B263
:102B6000C2B22846984706E0204604E0204602E02C
:102B7000204600E02046C0EA040001B0F0BD00009D
:102B80002DE9F04F91B00446408CDDF868B040F07C
:102B90000400608422841646BBF8082020461F46A5
:102BA0008A461BF017FE2784BBF8082005462046FE
:102BB00051461BF00FFE618C814621F004004D450B
:102BC000608405D104BF89EA05005FEA00407ED039
:102BD0002684BBF80820204651461BF0FBFD8046AA
:102BE00020465146278406F0EFFE0068BBF8081027
:102BF000424620F019FABBF808000B2828D147F606
:102C0000FF76B04518BFB14522D120461BF05CFFCE
:102C100081B200EBD13000B2451020461AF0FCFF23
:102C200081B200EBD13000B2B0454FEA600005D16F
:102C3000691C00F101084145B8BF884647F6FF719D
:102C4000894505D1691C00F101094945B8BF89468C
:102C500040F61420C2F20000FFF7DEFED0B3C0E958
:102C6000038904600546BBF808006C46A88020462E
:102C7000C5F808A008F04EFC4CF6D920C0F60200BA
:102C800001904CF68550C0F6020002904CF6C5400B
:102C9000C0F6020003900020CDE90800FF200A9052
:102CA000BBF80000BBF802100B904842DBF80C1098
:102CB0000C909DF842000791DBF8101000F0FE0028
:102CC0008DF8420020460095069108F0A3FC11B053
:102CD000BDE8F08FFEE7000040F61420C2F20000CD
:102CE0001421FFF791BE00002DE9F04F81B004469A
:102CF000408C10F4FC7F00F01A816FEA01096FEA42
:102D0000020B4FF0000AE84600250AE001200028E7
:102D100000F01081608C0135C0F3C500854280F061
:102D20000B81E06800EBC50149688A01F2D489B2E1
:102D300011EA090201EA0B01B1FA81F14FEA5111DE
:102D400018BF01224A40E1D150F8356010213046C9
:102D500042461FF037FF88BB3046112142461FF024
:102D600031FF58BB3046122142461FF02BFF28BBD3
:102D70003046132142461FF025FFF8B93046152191
:102D800042461FF01FFFC8B93046142142461FF0CB
:102D900019FF98B930460A2142461FF013FF68B95F
:102DA00030466A2142461FF00DFF38B930466B218C
:102DB00042461FF007FF00285AD000BF0127002F0E
:102DC00060D13046682142461FF0FCFE002849D100
:102DD0003046692142461FF0F5FE002842D13046B8
:102DE0006D2142461FF0EEFEE0BB30466C214246AC
:102DF0001FF0E8FEB0BB3046372142461FF0E2FE2E
:102E000080BB3046382142461FF0DCFE50BB3046C6
:102E1000352142461FF0D6FE20BB304640214246B7
:102E20001FF0D0FEF0B93046452142461FF0CAFEE1
:102E3000C0B93046412142461FF0C4FE90B9304629
:102E4000422142461FF0BEFE60B930464321424651
:102E50001FF0B8FE30B93046492142461FF0B2FE9D
:102E600000285BD04FF0020A002F3FF44FAF0CE078
:102E700030460121424601271FF0A4FE50B100BF99
:102E8000002F9ED0002F3FF441AF002000287FF498
:102E900041AF4FE03046042142461FF093FE002828
:102EA0007FF48CAF3046022142461FF08BFE002893
:102EB0007FF484AF3046032142461FF083FE002892
:102EC0007FF47CAF3046052142461FF07BFE002890
:102ED0007FF474AF3046062142461FF073FE00288F
:102EE0007FF46CAF3046322142461FF06BFE002863
:102EF0007FF464AF30466D2142461FF063FE002828
:102F00007FF45CAF30466C2142461FF05BFE074603
:102F1000002818BF0127002FB4D152E7BAF1000FE3
:102F200008BF4FF0010A002F3FF4F0AEADE74FF0BD
:102F3000000A01E04FF0030A5FFA8AF001B0BDE831
:102F4000F08F000040F6D420C2F200000068704705
:102F500070470000C0F30410072828BF07207047FF
:102F60004FF6FF71884204BF1F207047002804BF3E
:102F7000002070476F2805D84DF2CE41C0F60201FF
:102F8000085C704740F62021C2F20001096851B187
:102F900040F62422C2F200027038126880B28242E7
:102FA00084BF085C704700207047000080B540F681
:102FB0003020C2F200001821FFF726FD43F6E4504E
:102FC000C2F201000121017080BD00002DE9F04135
:102FD000F8B1164604460D46FDF700FA40F2000827
:102FE000C2F20008D8F8002007462046294690473C
:102FF000D8F800200546204431469047391A8D42C2
:1030000088BFBDE8F0812044425D625501358D42A4
:10301000FAD9BDE8F08100002DE9F04140F208083E
:10302000C2F200081446D8F800200F4619461D4683
:1030300006469047386040B12868D8F800203044F0
:10304000002190472060BDE8F08100202060BDE8AD
:10305000F08100002DE9F04F91B01A9E0546002E38
:103060001C461CBF0020308035B300294FF0000003
:1030700000F064812B78002B00F060811B9810F029
:10308000060F1DD00020012142F2014201E000BFE5
:1030900001302B5C0D2BFBD801FA03F71742F7D058
:1030A000002B18BF0130002E00F048814FF6FF7151
:1030B000318011B0BDE8F08F002011B0BDE8F08F75
:1030C0000192002200F001004FF0000A00260E924B
:1030D0000D900295009100BF0E9F0A96E85D0E4686
:1030E000002800F02E8120B201280690C0F229812C
:1030F00040F20800C2F2000005EB07090021026857
:1031000010910F91484610A99047834699F8000006
:10311000109900284FF000000F910894049700F0D8
:10312000C18031460A9E0C904FF0FF3200200024EF
:103130000023099040F20800C2F2000007920268E2
:103140000D4648460FA905940B9390470D9980466C
:1031500021B9099801300390284647E0099F0B9E4A
:10316000584600BFA0F12301B1FA81F15FFA8AF35A
:1031700000224909032B38BF01220A404FEAC3034A
:1031800051464FF0010418BF24FA03F1CBB2012BD2
:10319000454603D1202808BF022104E024EA0A039F
:1031A0001A40012A19D1109E8A4619F806000F9973
:1031B0000028109100F09F8040F20800C2F2000049
:1031C000026848460FA9904780460D9801370028AD
:1031D0002846C7D1781C039006E07A1CA8468A4688
:1031E0008346039209970B9600980A9E59464246D9
:1031F000054613F095FE059C01B20444002901998F
:10320000C8BF0C4420B2069A411A91420B99D8BF0C
:103210004FF0FF31079B5A1C08BF0B46039FBBF1C1
:103220000A0F27D0BBF10D0F18BFBBF1200F21D023
:10323000ABF59C4145F2A61291421BD3012100BF80
:10324000072905D041A2525C01319345F8D111E024
:10325000591C0C991A4608BF0146DDE90F030C9171
:1032600019F80310C34600292946109009977FF4E6
:1032700061AF20E01A460B9B63EA020100290C991A
:1032800008BF0146099F0C912946501C15D1089C86
:103290002FB1BBF10D0F08BFB8F10A0F00D1109B81
:1032A0000C9F14E031460A9E0C904FF0FF32002331
:1032B00000274FF00008501CE9D004980C9F00280C
:1032C0004FF000001CBF07460246089C1346029DB3
:1032D0003E44E3B10E982A7818440A2A0E9016D07C
:1032E0000D2A14D02A5C0D2A0FD00A2AA4EB070459
:1032F0007FF4F2AE09E0334600990A9E079A01373F
:10330000AB46A846501CD8D1C1E701300E901A9C9C
:103310000E9878B940F20800C2F2000002680F4629
:103320000EA9284690472CB101463846002213F0DA
:10333000F7FD0646002C18BF26800E9811B0BDE898
:10334000F08F1A9C31460A9EE2E700BF202C2E3BEC
:103350003A2D5F002DE9F04381B058B316464AB3C9
:10336000054630468846FDF739F818B30446284626
:10337000FDF734F8074640F20000C2F20000026890
:103380002846414607EB040990470119894507D3B0
:103390002A1900BFEB5DD355013FE3198B42F9D2E7
:1033A0002844711E013800BF11F8012F013C00F8BC
:1033B000012FF9D101B0BDE8F083000023290BD122
:1033C0000278022A08D8D3004FF0010C2CFA03F33C
:1033D0002CEA0202037000E000220378012B06D1E0
:1033E00020291CBF012070470221012201701046D4
:1033F000704700002DE9F04182B004460B46CDE94C
:1034000000110020002122464FF0000822F07CFB32
:10341000451C0746284617F07DFD58B100F8078087
:10342000019B29462246064622F06EFB304602B03A
:10343000BDE8F081FEE700002DE9F04702B3DDF8BA
:1034400020909A4614460F46804606E064F001003C
:103450003044441C05EB0A0774B1660806FB0A7584
:1034600040462946C8470128F0DAB0F1FF3F34460C
:10347000F2DD2846BDE8F08700252846BDE8F08744
:103480000020BDE8F08700002DE9F04F83B0129DC9
:103490001E468146DDE910700E9BDDE90C4B8A4625
:1034A00015F0020190460091CDE901203BD148B1D1
:1034B000E80709D015F00C0018BF01201199184336
:1034C000081A00E000200290BB4517D2BBF11F0F85
:1034D00014D86FEA0B013944CBF11F02914238BF77
:1034E0000A4602F1010804EB0B0041463022FCF7CA
:1034F00094FF0C9C0E9BC344DDF80480E80712D0B7
:10350000029883450FD2BBF11F0F0CD8029A3021CD
:103510000BF10100904204F80B1003D2BBF11F0F16
:103520008346F5D38346E80638D50F98690507D456
:10353000BBF1000F04D0BB4512D002998B450FD0D0
:10354000102819D115F0200104D1BBF1200F01D2B0
:10355000782017E081B1BBF1200F0DD2582011E087
:10356000BBF101010A4618BFABF10202102818BFD7
:103570000A4693461028E5D0022807D1BBF11F0F59
:1035800004D8622004F80B000BF1010BBBF11F0FF4
:103590009EBF302004F80B000BF1010BBBF11F0F95
:1035A0000DD80BB12D2006E0680703D4280706D5F7
:1035B000202000E02B2004F80B000BF1010BA807E2
:1035C00044460FD10298444683450BD202984246A6
:1035D000A0EB0B07202051463346541CC847013F3F
:1035E0002246F7D1BBF1000F10D00C98A0F10108D2
:1035F00018F80B00514622463346ABF10105671C13
:10360000C847002D3C46AB46F2D100E02746009863
:1036100098B10199DDF80880781A40450BD24D42E7
:10362000202051463A4633467C1CC847281940455D
:103630002746F5D302E03C4600E03C46204603B076
:10364000BDE8F08F9A4238BF885470477047000039
:103650002DE9F04F97B00D46209943F24D681C4676
:103660001746C0F600084FF0000A0E91002D18BF53
:1036700080460026A05D0AEB060B002800F0C183FF
:10368000252805D029465A463B46C0470136F1E772
:10369000A0190B95451C4FF000090D9704E000BFE1
:1036A00001350020002821D12878A0F1200110291F
:1036B0004FF00100F6D8DFE801F00D0C0C090C0CFE
:1036C0000C0C0C0C0C100C130C0C160049F010090F
:1036D000E6E7E7E749F00809E2E749F00409DFE730
:1036E00049F00209DCE749F00109D9E72878CDF86B
:1036F0003080A0F13001092912D8681E4FF000086F
:1037000010F8011F08EB8802437801EB4201A3F196
:1037100030020A2AA1F13008F2D3451C13E000BFA1
:103720002A280ED10E99013551F8040B0028804645
:103730000E9148BFC0F10008002848BF49F00209B7
:1037400001E04FF0000828782E281BD1284610F8F9
:10375000011F49F48069A1F13002092A23D8681EAB
:10376000002700BF827807EB8701C37802EB410195
:10377000A1F13007A3F130010A2900F10100F1D3D2
:10378000851C00E00027287868384FEA7000092877
:1037900021D8DFE800F0131D81202020052020051E
:1037A00049F4807916E02A2940F089800E99023583
:1037B00051F8040B20EAE0770E91E4E7284610F870
:1037C000011F682940F07E8049F0C009023502E0FF
:1037D00049F4007901352878A0F12501532900F238
:1037E000C3801024DFE811F0BB00C000C000C0009F
:1037F000C000C000C000C000C000C000C000C000C9
:10380000C000C000C000C000C000C000C000C000B8
:10381000C000C000C000C000C000C000C000C000A8
:10382000C000C000C000C000C000C000C000C00098
:10383000C000C000C000C000C000C000C0006100E7
:10384000C000C000C000C000C000C000C000CE006A
:10385000C000C000C000C000C000C000C000C00068
:10386000C000CC009A015400C000C000C000C000DD
:103870005400C000C000C000C000C000760061005D
:10388000C000C0007800C0005400C000C000CE00DE
:1038900029F010090A2475E0284610F8011F6C2948
:1038A00014D149F44079023595E7284610F8011FF4
:1038B00049F48879562908BF0546102462E000279C
:1038C000054660E749F08009054684E749F48079B8
:1038D000054680E7082455E00E98002650F804AB12
:1038E0000E909AF80000002850460FD03846002F5E
:1038F00008BF4FF0FF304142504600BF10F8013F73
:10390000013146F100020BB1002AF7D0A0EB0A000A
:1039100009F48066B842394638BF0146002E08BF18
:10392000014619F00200CDE9095040F012824145EC
:1039300080F00E820797DDE90B590D9F08F1010019
:10394000A8EB0104089000BF5A46202029463B46B8
:103950000BF1010BC847013CF6D1079FFAE109952D
:103960000BF1010A252002E00BF1010A09950B9DDC
:103970000D9FDDF8308029465A463B46C047E3E1BB
:10398000022400BF287840F00801582908BF49F0F8
:103990002009642803D0692818BF29F00C095FEAC0
:1039A000495148BF29F001095628099517D06928BF
:1039B00001D064282DD15FEA89503ED45FEAC95016
:1039C00050D45FEA496000F1C780DDF838E05FEA73
:1039D0000960DEF800C048BF0FFA8CFCC0E00E9909
:1039E0000B9D51F8040B0D9F0E914168DDF830805E
:1039F0000C6805EB0A010F94A7EB0A020368314437
:103A0000921B40460094FFF723FE504400EB060A49
:103A10009AE15FEA895038D45FEAC95000F1AD807D
:103A20005FEA496000F13081DDF838C05FEA096083
:103A3000DCF8006048BFB6B22AE10E98073020F0EB
:103A400007000246436852F8080B50EA030108BF1A
:103A500029F010090E92089371BB19F480612BD0E4
:103A6000002255E0DDF838E05EF804CBBCF1000F31
:103A700008BF29F01009BCF1000F40F08F8019F445
:103A8000806000F08B800026F0E00E98073020F078
:103A900007000146456851F8086B56EA050008BF63
:103AA00029F0100900280E9140F0998019F48060E7
:103AB00000F09580002211E180EAE370B0EBE3753D
:103AC00009F0200083EAE37180F0610061EBE376A6
:103AD000F6304FF0000A0A9028463146224600236D
:103AE000FCF7E0FB00FB14520A9B0A2A38BF302384
:103AF0002D1B76F1000613440AF101020FAE06F801
:103B00000A3005D3BAF11F0F924605460E46E3D39D
:103B100008980FA9C00FCDE9001205E119F00204C1
:103B2000099540F0AB80DDF838A0B8F1020FC0F085
:103B300041810BAFE0CF0A9408F10109C8F10004FC
:103B40005A46202029463B460BF1010BB047013471
:103B5000601CF5D10A9C30E1DDF838E09EF800C029
:103B6000BCF1000F08BF29F01009BCF1000F5CD1B7
:103B700019F4806059D0002676E0DDF838C05CF892
:103B8000046B002E08BF29F01009002E40F08A8037
:103B900019F4806000F0868000229DE009F0200189
:103BA00081F06101604601F1F6050023BCF1000FD0
:103BB00048BFCCF1000000BFB0FBF4F12A4601FB86
:103BC00014060A2E38BF302232445E1CA0420FA8D1
:103BD000C2544BD31F2B33460846EDD346E009F0C1
:103BE000200080F06100F6304FF0000A0A9000BF1C
:103BF0003046294622460023FCF754FB00FB1462A2
:103C00000A9B0A2A38BF3023361B75F1000613447D
:103C10000AF101020FAE06F80A305FD3BAF11F0FA6
:103C2000924606460D46E3D358E009F0200181F0A4
:103C30006101604601F1F6050022BCF1000F48BFAA
:103C4000CCF10000B0FBF4F12B4601FB14060A2E68
:103C500038BF30233344561CA0420FA8835403D3EB
:103C60001F2A32460846EDD30EF1040E0FA9CDF8F7
:103C700038E04FEADC70CDE9001655E00B9DDDF829
:103C800038A04FF0010998E0DDF838C09CF80060DA
:103C9000002E08BF29F0100926BB19F4806021D03E
:103CA000002139E009F0200080F0610000F1F60504
:103CB000002300BFB6FBF4F0294600FB14620A2A79
:103CC00038BF302111445A1CA6420FAEF15403D321
:103CD0001F2B13460646EDD3CDF838C00FA8CDE90B
:103CE000000220E009F0200080F0610000F1F605FC
:103CF000002300BFB6FBF4F02A4600FB14610A293A
:103D000038BF30220A44591CA6420FAEF25403D3E6
:103D10001F2B0B460646EDD30CF1040C0FA8CDF873
:103D200038C0CDE90001002002A981E89101DDF849
:103D300030800B9D0D9F404629465A463B46CDF8A4
:103D40001890FFF7A1FB82460998441CFFF791BC2D
:103D5000013108919AF80000A8B10AF101090DE0BB
:103D60003C460B99DDE90C73C0B25A460BF1010ACF
:103D7000B84719F8010BD346274628B1002EEFD0DB
:103D80000FB17C1EEDE7DA460A9898B308980B9DB0
:103D90000D9F404532D2A8EB0004DDF8308000BF13
:103DA0005246202029463B460AF1010AC047013C01
:103DB000F6D1C9E70B9D4FF002091AF8040BDDE9B3
:103DC0000C7329465A46CDF838A00BF1010AB847C2
:103DD0008CB1C1450FD2A8EB0904DDE90C8700BF07
:103DE0005246202029463B460AF1010AC047013CC1
:103DF000F6D1A9E70B9DDDE90C87A5E7DDF830805A
:103E0000A2E75A46002029463B46BB4528BF7A1EFA
:103E1000C047584617B0BDE8F08F00002DE9F04FBD
:103E200081B040F61C48C2F20008D8F8000020F02B
:103E3000EDFF40F64829C2F2000999F80010044647
:103E400081F0010089F8000040F6A400C2F20000F1
:103E5000FEF7B4FD002800F0AD8040F6402740F6A4
:103E6000A40B0646C2F200074FF0000AC2F2000B94
:103E700008E000BF58463146FEF7B8FD0646002868
:103E800000F0988096F8420099F80010C0F3800284
:103E90008A4287F800A000F0858000F0FB0242EA29
:103EA0008101020786F842101AD4316B002917DC11
:103EB000091915D4C00709D1716939B1304688474D
:103EC000316AB26A014410443162B062B16809B12A
:103ED0003046884796F8420040F0080086F84200D5
:103EE000306B001930635DD4F16A8842C8BF31631A
:103EF000F16930468847726A904205D0726801467F
:103F000070620AB130689047D6E90B01814249DB03
:103F100096F8421011F0020209D1B6F8403033B1E0
:103F20004FF6FF75AB421CBF013BA6F84030B6F818
:103F3000403013B9B36BA3B19AB9D6E90E356D42CF
:103F400035637BB312B9726B5242326381F0020166
:103F500086F84210B16A326A3162C6E90A23B06358
:103F600020E058463146FEF795FD0120387058464E
:103F7000FEF724FD014640F6B000C2F200000068E2
:103F800011B121F0F7F801E021F0E4F8F16809B18E
:103F900030468847316909B130468847304617F0C6
:103FA000C5F800BF387801287FF464AF5846FEF7A3
:103FB00005FD63E720F03EFFC8F8000001B0BDE852
:103FC000F08F0000B0B5044640680D4610B1294698
:103FD000FFF7F8FF2268002A08BFB0BD2046294637
:103FE000BDE8B0401047000089B207F03FBF0000B5
:103FF00089B207F03BBF000089B207F0A5BF0000FF
:104000002DE9F04F91B043F6F05A46F25C180825BE
:10401000C2F2010AC0F60408E94691E081B200EB61
:10402000D13000B2411006294FF00601C8BF41103F
:10403000DAF800304FF00602B8BF421058F82300FB
:10404000891AB0FBF1F606FB1100591C10443F29F8
:1040500088BF0021CAF800100FFA8BF102B2204687
:104060001CF05AFE43F6FC512046C2F201014FF407
:10407000003218F081F9DAF8000040F2011358F824
:104080002010C1F200030A09A2FB03231A0C120537
:10409000A2EB13420130A1EB02113F2888BF0020A0
:1040A0004FF6FF7BCAF80000F820C1F3423227EA3E
:1040B0000B0700EA11403A4401F4E053104401F0C8
:1040C000F80140EAC30040EA4117204639464FF460
:1040D00000321CF0C5FF2046002107F035FFDAF85A
:1040E000000048F21F5258F82010C5F2EB12A1FB55
:1040F00002239A09C823013002FB13113F2888BF0D
:104100000020CAF80000484601F1320607F002FA22
:1041100043F6F170C0F6000001900020CDE90800E0
:1041200040F26710CDE90A06484600940E96ADF8B5
:1041300040B007F06FFA204604F0DAFB013D43D0AF
:1041400043F6F850C2F20100006807F0F7FA4FF6A4
:10415000FF720021C0F20F0204461CF099F90BF027
:1041600071FA0BF089FA20F001010C2902D14FF00D
:10417000060B1EE081B200EBD13000B241100629DF
:104180004FF00601C8BF4110DAF800304FF00602C8
:10419000B8BF421058F82300891AB0FBF1F606FBAD
:1041A000110000EB020B581C3F2888BF0020CAF802
:1041B00000000BF047FA0BF05FFA20F001010C2928
:1041C0007FF42CAF062047E711B0BDE8F08F000068
:1041D00010B543F6FC54C2F2010420461EF080FEE6
:1041E00020460D211EF0A0FE40F22810C2F2000071
:1041F00000787F210028204608BFFF211EF08CFE9A
:10420000BDE81040FFF7FCBE10B543F6FC54C2F207
:10421000010420461EF064FE204602211EF084FEAA
:1042200040F22810C2F2000000787F2100282046CA
:1042300008BFFF211EF070FEBDE81040FFF7E0BE92
:10424000B0B592B00446808FF8B101AD284607F0B2
:1042500061F946F24130C0F602000290A08F01944D
:104260000C900020CDE9090001200B904BF2E950A1
:10427000C0F60000089046F24530C0F602000490F7
:10428000284607F0C7F912B0B0BD204612B0BDE80D
:10429000B04022F003B800002DE9F04182B00BF0ED
:1042A000D1F943F6F452C2F201021278016845F6E0
:1042B0005943C0F602034B62AAB1406840B101689D
:1042C00040F6D022C2F200021160012120F058FF16
:1042D00007F01AF9016840F64422C2F200021160A8
:1042E000012120F04DFF0BF0ADF90BF001FA4FF674
:1042F000FF75C0F20F0500212A46044600261CF077
:10430000C7F82046FF2100221CF0C2FE204615F00F
:1043100017F943F68467C2F20107042104223860CA
:104320001CF086FC204615F00BF943F6406839680E
:10433000C2F201080D220023C8F80000009618F010
:1043400081F8204618F07AFE43F6F857C2F20107CA
:1043500000212A4638601CF09BF83D6820461AF080
:10436000B3FB0646204619F057FCD8F80010498BDD
:10437000401A043802B2284631461CF0CDFC386899
:1043800005210022002318F04FF843F6FC50C2F23A
:1043900001001EF09BFC204602B0BDE8F0411CF07D
:1043A00043BF0000B0B5B9B180290A4609D3B1FABC
:1043B00081F2C2F11A024FF0FF3303FA02F2D24344
:1043C0000A447F2A0CD8D31702EB93724FEAA20C4F
:1043D0000024082C0FDD3AE000244FF0000C36E0FA
:1043E000B2FA82F3C3F11A04E24082F0200CC3F166
:1043F0001904082C2BDC00EB840252694FF0FF3EBD
:104400000EFA0CF31A400CD052B192FAA2F2B2FAA0
:1044100082FC00EBC41202EB8C02926BCAB93BE047
:10442000FEE70269631C0EFA03F312EA030E0AD0D8
:104430009EFAAEF2B2FA82F400EB84025269BEF147
:10444000000FE1D103E00022BEF1000FDCD1002219
:1044500012B3536823F003038B4200D2FEE7D36804
:10446000E3B19168E1B1CB60996000EBC41303EB59
:104470008C0E5EF8383F93420ED18142CEF8001088
:104480000AD100EB84034FF0010E5D690EFA0CF1C6
:1044900025EA0101596121B11046B0BDFEE700BF18
:1044A000FEE701690EFA04F3994301611046B0BDBD
:1044B000F0B54A68032A09D922F003030E1D9B199F
:1044C00006D05D68EC0704D10846F0BDFEE700BFEA
:1044D000FEE7032A0CD925F003027F2A09D8D51755
:1044E00002EB95724FEAA20E4FF0000C0AE000BFFB
:1044F000FEE7B2FA82F5C5F11A04E24082F0200E1E
:10450000C5F1190CDD686DB39A686AB300EBCC1481
:10451000D560AA6004EB8E0555F8384F9C4211D146
:1045200082422A600ED100EB8C040127656907FAEC
:104530000EF225EA0202626122B9026907FA0CF75B
:10454000BA4302614868032810D95A6822F003026E
:1045500010440430032848600AD920F00300815138
:104560000846F0BDFEE700BFFEE700BFFEE700BF64
:10457000FEE70000B0B531B122B14B68DC0704D1D1
:10458000FEE700BFFEE70020B0BD23F0030402F108
:1045900010039C4211D2486803280DD920F0030271
:1045A00001F10800835823F0020383504A6822F087
:1045B00001024A60B0BD00BFFEE701F1040C0CEB44
:1045C000020303F10B0503F1080E25F00305AE45C8
:1045D00001D000BFFEE75D68A41A043C05F00305A6
:1045E00025430B2C5D602DD94C6804F00304224355
:1045F0004A605A68032A27D922F003055EF805208D
:1046000042F002024EF805205A68754442F0010457
:104610005C604C6845F8043C032C17D924F0030572
:1046200045F80C1042F0030522F003027F2A5D607A
:104630000DD8D51702EB95724FEAA20C4FF0000E81
:104640000EE000BFFEE700BFFEE700BFFEE7B2FAE4
:1046500082F5C5F11A04E24082F0200CC5F1190E72
:1046600000EBCE1202EB8C0454F8382F92B19BB1C0
:10467000C3E90220D36023600122036902FA0EF429
:104680002343036100EB8E00436902FA0CF21A43E4
:10469000426180E7FEE700BFFEE7000010B543F689
:1046A000FC54C2F2010420461EF01AFC20460321ED
:1046B0001EF062FC40F22810C2F2000000787F2158
:1046C0000028204608BFFF211EF04AFCBDE810402C
:1046D00021F03CBE10B543F6FC54C2F20104204662
:1046E0001EF0FEFB204647F6FF711EF01BFD204624
:1046F00003211EF041FC40F22810C2F200000078B5
:104700007F210028204608BFFF211EF029FCBDE8BC
:10471000104021F01BBE000010B543F6FC54C2F25D
:10472000010420461EF0DCFB204608211EF0FAFCA6
:10473000204603211EF020FC40F22810C2F20000A7
:1047400000787F210028204608BFFF211EF008FCCA
:10475000204604211EF00CFCBDE8104021F0F6BDFF
:1047600010B543F6FC54C2F2010420461EF0B8FB1B
:10477000204608211EF0D6FC204603211EF0FCFB3B
:1047800040F22810C2F2000000787F210028204665
:1047900008BFFF211EF0E4FB20460C211EF0E8FBC1
:1047A000BDE8104021F0D2BD10B543F6FC54C2F272
:1047B000010420461EF094FB204608211EF0B2FCA6
:1047C000204603211EF0D8FB40F22810C2F2000060
:1047D00000787F210028204608BFFF211EF0C0FB83
:1047E000BDE8104021F0B2BD10B543F6FC54C2F252
:1047F000010420461EF074FB204608211EF092FCA6
:10480000204603211EF0B8FB40F22810C2F200003F
:1048100000787F210028204608BFFF211EF0A0FB62
:10482000204603211EF0A4FBBDE8104021F08EBD00
:1048300010B543F6FC54C2F2010420461EF050FBB2
:10484000204608211EF06EFC204603211EF094FB3A
:1048500040F22810C2F2000000787F210028204694
:1048600008BFFF211EF07CFB204602211EF080FBCA
:10487000BDE8104021F06ABD10B543F6FC54C2F209
:10488000010420461EF02CFB204608211EF04AFCA5
:10489000204603211EF070FB40F22810C2F20000F7
:1048A00000787F210028204608BFFF211EF058FB1A
:1048B000204606211EF05CFBBDE8104021F046BDFD
:1048C000B0B582B0044614F03BFB054614F078FB0B
:1048D00038B1208FE08620461AF042FC012002B059
:1048E000B0BD606A01211AF05DF918B1204611F0DF
:1048F000FBFF2AE02046012118F04EFB4FF6FF7126
:10490000606A6187012117F0F1FC20462021002216
:1049100012F07AF9218FE08E81420BD0208701902E
:1049200001AA20461C2112F06FF90128D7D1204698
:104930001AF016FC284614F04FFB042805D1204637
:1049400019F064F9002113F0CFF8012002B0B0BDD6
:10495000B0B512F055F9044619F0BAF905462046EB
:1049600008F028FC014628460122BDE8B0401FF0AF
:10497000B7B900002DE9F04F8BB0924689460890F8
:10498000C8784CF2E9014CF2F502C0F60001C0F61D
:104990000002079310F0010008BF0A464CF28101A3
:1049A000DDF860B04CF24D08C0F600010592C0F68B
:1049B00000080A4608BF42460692002808BF8846FB
:1049C00005E000BF4FF0000C5FEACC7057D0BBF899
:1049D0000200DBF81020BBF80410A0EB010E9AB126
:1049E000DBF80C1001F10803002106E01F88AEEB94
:1049F000070E013A03F1140307D01F7AFF07F5D120
:104A00009F883944F5E700BF0021DBF81020002A19
:104A1000D8D0002200274FF0000C27E00DB20FFA8B
:104A20008EF393FBF5F3E568B4F904006B43B4F936
:104A300006501BB2AB42B8BF1D468542D8BF0546E3
:104A40009D421EBF46F0010020744FF0010CDBF8C0
:104A50000C00AEEB050E104483890581C91ADBF802
:104A600010000137874202F11402ADD2DBF80C606E
:104A7000B418267CF507F2D10D04CFD1FEE70898D3
:104A80000021162219F0A6FEDBF8081099F8006044
:104A90000AB2F71EFFB2022A3346B8BF0223032F21
:104AA0004FF0FF3728BF334657FA83F7042F0AD851
:104AB000BBF80230DFE807F0030A121E2A0016993D
:104AC0000025CE1A2EE0002600252BE0169A19B2FA
:104AD000511A01EBD1714E10002523E0169AD21A1B
:104AE0004FF4803303EB014112B2091492FBF1F54C
:104AF0002E4617E01699C91A09B291FBF2F291B24B
:104B000002EBD13109B215464E100BE0169A002681
:104B1000D21A0023CFF6FF7303EB014112B209143E
:104B200092FBF1F599F80310089CC907C0B20490F4
:104B300005D0012803D1204619F002F8064420468A
:104B4000514618F079FF002800F052810746079877
:104B5000824500F04D81179801242844C0F20604D4
:104B6000029000BF384621461AF024F8C8B199F8DF
:104B70000300400708D408980AF1010A80684168D8
:104B80008A4507DB2EE100BF0898BAF1010AC0F29E
:104B900029818068006850F82A70002F40F0248135
:104BA00026E140F68800C2F2000002883846002163
:104BB00019F010FE000611D0DBF81000354658B190
:104BC000DBF80C10083100BF51F8082CBA420BD0AA
:104BD000013801F11401F7D1002406E0788C354644
:104BE00020F4C06078842FE00C8899F80310788C4A
:104BF000C9074FF4806120F4C06008BF4FF4007112
:104C0000084407F11406069978843046884780B234
:104C1000844219D038461AF0A3FA7869B969059A1E
:104C2000CDE9090121B2304690473846292109AA29
:104C300011F0EAFF384619F04BF822213A4611F0FC
:104C4000E3FF38461AF08CFA99F8010001280ED0DB
:104C5000022813D1BBF90000013020F0010407F154
:104C60001400C047201A00EBD070461007E0BBF8D4
:104C7000004007F11400C047261A00E0002699F80A
:104C800003000196C00707D00498012804D10699B3
:104C900007F1140088472D1A384600216A2219F0BE
:104CA00099FD0446384600216B2219F093FD064613
:104CB000384619F009FF0390384618F0ADFF04F4A8
:104CC000C041A646B1F5005F16D10FFA8EF121F46E
:104CD000C041B1F5FA6F0FDCB1F57A7FC8BFC1F5FD
:104CE0007A71039A514348F21F52C5F2EB1251FBFD
:104CF00002F14A1102EBD17E06F4C041039535461C
:104D0000B1F5005F14D129B221F4C041B1F5FA6FB9
:104D10000EDCB1F57A7FC8BFC1F57A71484348F21D
:104D20001F51C5F2EB1150FB01F0411101EBD075A1
:104D30003A46149E32F8140F039C99F803107644F7
:104D40002346301A0092B2F802C011F00101019A14
:104D500008BF1346C618159800292844A0EB0C007C
:104D600008BF2246841846EA0400000417D03846DB
:104D70001AF0F6F9B88A398B3044B8828819F98A62
:104D800038830819798BF8820819788338461AF025
:104D9000E7F931B222B2384600231AF083FA99F8C3
:104DA0000300049FC00705D0012F03D1DDE90206EF
:104DB000361A06E0009806998847DDE90212114488
:104DC0000E1899F8030008990124C0F20604400760
:104DD00003D488680AF1010AD1E6BAF1010A01DBBD
:104DE0008868D7E600271FB1079882457FF4BAAEDE
:104DF0000BB0BDE8F08F00002DE9F041022A4FEA28
:104E0000112350D900F00707C0F34236C1F3C40E96
:104E1000C0F3C404C1F3423C46EAC706744401F03F
:104E2000070866441F2C06EBC806C0F3042003F0F5
:104E30001F034FF01F0528BF2C463F2E184428BFE4
:104E40003F26F7081F2847EAC40438BF0546FF2A53
:104E500045EA461326D0D8B2E5B24009ED0864F31E
:104E6000C50003F01F03554382F0FF06504361F372
:104E7000C50CC1F304245A431EFB065748F28105B2
:104E80001CFB060014FB06226F4368436A433F0D78
:104E9000810E800CD20DFF0862F3040067F3DF017E
:104EA000034600E02146C8B240EA0320BDE8F08195
:104EB000F0B5022A4FEA112350D9C0F3C40EC1F352
:104EC000C40C0CFB0EFEF82404EA9E0EC0F304246E
:104ED00003F01F036343C0F34234254660F3C50566
:104EE000C1F3423061F3C50045436E0A44EAC6048B
:104EF0004EEA552E44436FF01F0505EA5404FF2A7D
:104F000044EA531329D04FEADE05554382F0FF06E9
:104F10001CFB065548F2810CDCB205FB0CF52F0D8D
:104F20000EF00705640944EAC505554303F01F0365
:104F300010FB0650C1F304255A4315FB062200FB63
:104F40000CF002FB0CF2810E800CD20DFF0862F314
:104F5000040067F3DF01034600E07146C8B240EA8F
:104F60000320F0BDF0B5022A4FEA11234DD900F01D
:104F70000706C0F34237C0F3C404C1F3423C47EA1A
:104F8000C606C0F3042003F01F03C1F3C40E01F0F2
:104F900007056644181AAEEB040406EBC50520EAC3
:104FA000E07024EAE474C5F3C20600F01F0046EA8C
:104FB000C404FF2A40EA451326D0D8B2E5B240091E
:104FC000ED0864F3C50003F01F03554382F0FF06AC
:104FD000504361F3C50CC1F304245A431EFB06572A
:104FE00048F281051CFB060014FB06226F43684350
:104FF0006A433F0D810E800CD20DFF0862F304005E
:1050000067F3DF01034600E02146C8B240EA03200F
:10501000F0BD000070B582B0044611F0F1FD054608
:10502000204611F0D5FD0646284618F051FE0A2EFE
:10503000044609D02B2E48D1618D2046002202B0B3
:10504000BDE870401EF04CBE13F07AFF10B100793D
:1050500001283AD001A9284618F0B6FE94F82C0091
:1050600010F00C0F16D0284618F06AFD05462046B1
:105070000021162219F0AEFBC1B2BDF9040005EB08
:10508000D57201294FEA620114BF0844081A90FB47
:10509000F5F00AE0284618F037FDBDF9061000EBE0
:1050A000D07201EB620191FBF0F000B220EAE075F2
:1050B000668D2046294601221EF012FEB54204D01C
:1050C00020461C21002211F09FFD02B070BD00009F
:1050D00041F20401C4F202010A6800F00F0022F05C
:1050E000F00242EA001008607047000041F204013B
:1050F000C4F202010A6800F0070022F4E06242EA0A
:10510000002008607047000041F20401C4F202016F
:105110000A6800F0070022F4605242EAC0200860EA
:105120007047000041F25401C4F202010A680128EC
:1051300022F0300208BF30320A607047042888BF6E
:105140007047DFE800F0030C19262F0041F2000041
:10515000C4F20200026861F300020260704741F28B
:105160000000C4F20200026801F0010122F4803262
:1051700042EA01410160704741F20000C4F20200BE
:10518000026801F0010122F0807242EA01610160CF
:10519000704741F20000C4F20200026A61F30002AB
:1051A0000262704741F20000C4F20200426A61F3F9
:1051B0000002426270470000B0B541F20401C4F23F
:1051C00002010A68C2F3810341F20022022BC0F2FD
:1051D0007A020BD0A3BB0B6D9B0531D5CB6A9B012B
:1051E00044BF46F60042C0F2DC2229E0D1F800C0FC
:1051F000D1F800E00C68CEF3834EC4F34174230170
:105200000133BEF10F0F1D4618BF0225002C18BF39
:105210001D465FEACC3305EB0E0305D440F60012C1
:10522000C0F23D025A430BE00D68AD0301D45A436E
:1052300006E00D6DC5F301350235B2FBF5F25A43B8
:1052400002600A6813A3C2F303129A5C03684DF26A
:10525000E05523FA02F242600B68C0F60205C3F380
:105260000223EB5C22FA03F3C3600B68C3F3C2238F
:10527000EB5C0425DA4082600B68096805EA9363F9
:10528000C1F38131194407A3595CB2FBF1F101610B
:10529000B0BD00BF000000000000000001020304D8
:1052A0000607080902040608020C081041F2000271
:1052B000010CC4F20202895800F01F0021FA00F02C
:1052C00000F001007047000041F25401C4F20201F5
:1052D0000A6800F0030022F4405242EA00300860FD
:1052E0007047000041F200010020C4F2020100BF3B
:1052F0000A68920304D4B0F5405F00F10100F7D3CF
:105300000868C0F34040704741F2000200F01F03FC
:105310004FF0010CC4F2020201290CFA03F14FEA2A
:105320001040835814BF23EA01011943815070478C
:1053300080B541F2040EC4F2020EDEF800C060B186
:105340004CF48033CEF80030DEF800C0012814BFE2
:105350004CF400302CF4003001E02CF48030CEF816
:105360000000DEF8000061F39540CEF80000DEF8A2
:105370000000090961F35E70CEF80000DEF800005D
:1053800020F0004040EAC270CEF8000080BD00006E
:1053900041F20000C4F20200016841F00101016025
:1053A00001688907FCD5416821F00301416000BF15
:1053B000416811F00C0FFBD10021416002684FF6EB
:1053C000FF73CFF6F2631A40026001634FF41F01CE
:1053D0008160704741F20401C4F202010A6860F37F
:1053E00001020A607047000041F20400C4F20200AA
:1053F0000068C0F38100704710B582B090F8542067
:1054000002F001038B4222D0002918BF012102F0D3
:10541000FE021144426A80F85410B0F848C0918AE4
:10542000B0F84CE001EB0C03ADF80030D28AB0F8D4
:105430004E30B0F84A407144ADF80410D11814440D
:10544000ADF806106946ADF8024019F0B9FE02B099
:1054500010BD000088B2114609F03AB980B50420A9
:1054600026F03CFA40F61800C2F2000000684DF643
:105470008361C4F21B31A0FB0101880C40F600419E
:10548000C2F20001086008684FF47A71484340F6A0
:10549000FC31C2F20001086080BD000080B5002828
:1054A00008BF80BD4EF2100140F6FC3ECEF2000176
:1054B000C2F2000E4FF0320C002300BF82B2332A3A
:1054C00006D3DEF80020323802FB0CF24A6004E01A
:1054D000DEF800005043486000208B600A6842F00C
:1054E00001020A600A6802F00112012AFAD00A6871
:1054F00022F001020A6002048B60DFD180BD00004F
:1055000070B540F21F00C2F200000078002808BF0A
:1055100070BD14468A880888CB884988161A5D1A97
:105520000135FBF7A5F840F60040C4F20100042164
:1055300004F0AAFA022000EB4600684343F20C0193
:1055400082B2C4F201012046BDE87040FBF75CB8AE
:10555000026861F300020260704700000421B0F1AC
:10556000805FC4F2020192BF086020F07040C1F871
:10557000000470470021C4F20201B0F1805F88BFCF
:1055800001F580610968084018BF012070470000DC
:1055900002684BF6EF731A4002600A8903681A43E7
:1055A00002604A7C036802F0030223F4405343EA9A
:1055B00002320260CA7B036802F0030223F44063F4
:1055C00043EA822202608A7B036802F0030223F42A
:1055D000407343EA022202604A7B036802F0010240
:1055E00023F0800343EAC21202600A7B036862F37D
:1055F000861303600A7C036862F3451303604A89DB
:1056000042600A6882604968C1607047002A026887
:105610000CBF22EA0101114301607047016821F0CB
:10562000010101600021016041608160C16040F2C0
:10563000FF4100EA01020421B2F5816FC4F20201C8
:1056400005D3D208902A88BF704701F5806100F029
:10565000FC004CF6CD420838CCF6CC42A0FB02024E
:105660006FF0030000EA92000F220B6802FA00F0CC
:1056700018430860704700002DE9F04F9BB00E46BC
:10568000C9780329C0F00A82B6F920700590138802
:1056900051889088D288022FADF86430ADF866103A
:1056A000ADF86800ADF86A201BDB96F82270FD2F7C
:1056B00017D33788AFB196F82370C7F3C0052B44D2
:1056C000ADF86430C7F380031944ADF86610C7F332
:1056D0000011401AADF86800C7F34000101AADF889
:1056E0006A00059819A9826817A8FCF7CFFB002863
:1056F00000F0D481F07B062110F0070008BF0421E0
:10570000775A71890DF16408791A18BF014640462D
:1057100002910BF04DFA0446B0780025CDE91555FD
:10572000CDE91355CDE9115510958DF85900ADF817
:1057300048703CB93088002804BF02985FEA0060D6
:1057400000F07781F778BDF86800BDF86410FC2F91
:1057500088BF4FF0FF37401ABDF86A10BDF86620C9
:1057600001300FFA80FB881A01300FFA80F84046AA
:10577000B6F900A0C345B8BF5846BAEB600FA8BF42
:105780004FEA600ABDF86000BDF85C10BAF1000F86
:10579000A0EB01004FF00001C8BF012101302143FF
:1057A000B31D01290FFA80F911D148461E4615F0A4
:1057B0000BFC05460FFA8AF20AA819A900230BF080
:1057C000C1FE0AA800210AF093FF334601E04FF61C
:1057D000FF700190BDF85C00BDF86010ADF82000CE
:1057E00008A810901590FF20ADF824108DF85800EF
:1057F000184659464246139511F04CFE68B102997D
:10580000C9B2022909D18368BDF95C10BDF96420D1
:1058100003EB4101A1EB420111910490DCB3BDF90E
:105820005E40BDF96200844200F32381029839464C
:10583000C7B2CEB20DF140080BE000BF059841465B
:105840000CF000FEBDF96200844204F1010480F214
:105850001081284631464A46ADF82240ADF8264030
:1058600015F08EFDBDF95C1022B228464B460BF0B8
:1058700051F9012808BF0220012F8DF85000DDD119
:105880000498BDF966108068A0EB410030F8140060
:10589000ADF84800D2E700970FFA8AF0059F01287B
:1058A00061DB00984FF00008C6B20298C0B20390C6
:1058B00008E000BF384610A90CF0C4FD08F101084B
:1058C000C24550D0BDF86600BDF95E10404404B238
:1058D000BDF86A008C42A0EB08000FFA80FB03DAE7
:1058E000BDF962008345E9DC284631464A4615F099
:1058F00047FDBDF92010284622464B460BF00AF919
:10590000BDF95E10012808BF02208C428DF85000BE
:1059100013DB0398ADF822400128ADF8264008D1EA
:105920000499BDF966008968201A31F81000ADF8B5
:105930004800384610A90CF085FDBDF9620083458A
:10594000BCDC0398ADF822B00128ADF826B0B1D187
:105950000499BDF966008968ABEB000031F81000CE
:10596000ADF84800A6E7BDF86400BDF86610ADF8D4
:105970001800BDF86800ADF81C0001EB0A00BDF886
:105980006A10ADF81A00A1EB0A00ADF81E0006A8D7
:105990000BF00EF90028834604BF02985FEA00600E
:1059A00053D0BDF96A00BDF96610009BA0EB0A0256
:1059B00001EB0A0494424FF001028DF858308DF843
:1059C000502056DC401AA0EB4A00461C02985FFAB1
:1059D00083F85FFA80FA10AF07E000BF39460CF099
:1059E00031FD013E04F1010443D0BBF1000F0DD0A5
:1059F000284641464A4615F0C3FCBDF95C1022B268
:105A000028464B460BF086F88DF850000598BAF101
:105A1000010FADF82240ADF82640DFD104998A6825
:105A2000BDF96610A2EB410131F81410ADF8481031
:105A3000D4E7F07810A98DF858000598CDF840808B
:105A40000CF000FD1BB0BDE8F08FBDF86600BDF89E
:105A50006A105044ADF82200A1EB0A00ADF8260010
:105A6000009810A98DF858000020139038460CF0CB
:105A7000E9FC15B1284615F043FB019A4FF6FF717A
:105A800090B2049C884205D010B20BF09FFF0AA888
:105A90000BF06EF814B1204611F0F4FC1BB0BDE819
:105AA000F08F00002DE9F04790B08A46096900297F
:105AB00000F01F8180469AF81A000328C0F019816F
:105AC0001646D8F808200EAC20463146FCF7DEF921
:105AD000002800F00E81D8F80890C8F80840DAF8DD
